:10000000020AD48F993099FDC299220203EA1203A1
:10001000411204021203DE120375E4FF1203887F0B
:100020000112039A7F011203AC7F011203BE120377
:10003000011203D0EF60030201151203FD7BFF7A6A
:1000400004790C1202DEE4FD7F011202131201B0EA
:100050001202BBE50D7014750E0312011B7F5312C3
:1000600000037FE87E03120321806F150EE4FF1268
:10007000039AE50E60641203FD7D04E4FF1202138F
:100080007BFF7A04791C1202DE7D037F01120213CA
:100090007BFF7A0479221202DE7F967E0012032112
:1000A0007F0112039AE4FF1203AC1203FD7BFF7A77
:1000B00004790C1202DEE4FD7F011202131201B07A
:1000C0001202BBAF0D7E00EF64017004150E80A21A
:1000D000EF4E709E751401750E03E51464017019DE
:1000E000F5147F011203AC12011B1203017F53129E
:1000F00000037FE87E03120321E50E600302003156
:10010000FF12039AE4FF1203ACE4FF1203BE7F0167
:1001100012038880E4120301020031750E03E4FF2C
:100120001203BE1203FD7F327E001203217D06E41E
:10013000FF1202137BFF7A04792B1202DE7D047F0B
:10014000011202137BFF7A0479301202DE7D307FC8
:10015000F81204077FF47E011203217D247FFA1236
:1001600004077FDC7E051203211203FD7D06E4FFF8
:100170001202137BFF7A04792B1202DE7D047F01C9
:100180001202137BFF7A04793A1202DE7D2C7FFC87
:100190001204077FF47E011203217D247FFA1204EA
:1001A000077FF47E011203217F011203BE0203FDCB
:1001B000E4F515C3E515940474809480500B74081D
:1001C0002515F8E4F6051580EAE4F515C3E5159460
:1001D0000474809480503512080074082515F8A620
:1001E0000774082515F8E6FFC394304012EFD39446
:1001F00039500C1202947F327E00120321800215C6
:10020000157F327E00120321051580C0120800BF41
:1002100023FA22EF14600E14601214601624037087
:10022000178D158013ED2440F515800CED2410F585
:10023000158005ED2450F515E5154480FF02026D8B
:10024000BB010CE58229F582E5833AF583E0225073
:1002500006E92582F8E622BBFE06E92582F8E222BD
:10026000E58229F582E5833AF583E493228F16C26D
:10027000807F017E00120321D2817F017E00120364
:10028000218516907F017E00120321C2817F017EAD
:10029000000203218F19D2807F017E00120321D238
:1002A000817F017E001203218519907F017E00125B
:1002B0000321C2817F017E00020321E4F50DFFEFDF
:1002C000C39404748094805014740F2FF8E6FE7465
:1002D000082FF8E66E6003750D010F80E2228B1582
:1002E0008A168917E4F518AB15AA16A9178518827E
:1002F000758300120240FF6007120294051880E720
:10030000227D04E4FF1202137BFF7A047944120277
:10031000DEE4FD7F011202137BFF7A0479500202B2
:10032000DEE4FDFCC3ED9FEC9E5015E4FBFA0BBB35
:1003300000010ABA02F8BB58F50DBD00010C80E4BB
:1003400022C280C2817F147E00120321E4F5907FD7
:100350003812026D7F0C12026D7F0102026D050FD3
:100360003132323100010D00011400010E03011A77
:10037000F9011B3400759850C2B5C29853877F436A
:100380008920758DFDD28E22EFFD7C006401700303
:10039000D2B622ED4C7002C2B622EFFD7C00700393
:1003A000C28422ED64014C7002D28422EFFD7C00F5
:1003B0007003C28522ED64014C7002D28522EFFDEC
:1003C0007C007003C28622ED64014C7002D286224A
:1003D000D2B320B303E4FF2230B3027F0122758938
:1003E00001851A8C851B8AD2A922B2B4C28D851AC6
:1003F0008C851B8A323098FDAF99C298227F01020A
:10040000026DD2AFD28C228F1A8D1B22456E74657D
:10041000722050617373776F72643A0057726F6E17
:10042000670050617373776F726400446F6F72007E
:100430006973204F70656E656400697320436C6F4B
:100440007365640057656C636F6D65202D5F2D00CB
:10045000536563757269747920426F6F74207800F8
:10080000D2A3D2A2D2A1D2A07F327E00120321C2F3
:10081000A7D2A6D2A5D2A420A30D7F327E001203B8
:100820002130A3FD7F312220A20D7F327E001203F2
:100830002130A2FD7F322220A10D7F327E001203E3
:100840002130A1FD7F332220A00D7F327E001203D4
:100850002130A0FD7F4122D2A7C2A6D2A5D2A420DA
:10086000A30D7F327E0012032130A3FD7F342220AE
:10087000A20D7F327E0012032130A2FD7F3522209F
:10088000A10D7F327E0012032130A1FD7F36222090
:10089000A00D7F327E0012032130A0FD7F4222D2C4
:1008A000A7D2A6C2A5D2A420A30D7F327E00120338
:1008B0002130A3FD7F372220A20D7F327E0012035C
:1008C0002130A2FD7F382220A10D7F327E0012034D
:1008D0002130A1FD7F392220A00D7F327E0012033E
:1008E0002130A0FD7F4322D2A7D2A6D2A5C2A42048
:1008F000A30D7F327E0012032130A3FD7F2A222028
:10090000A20D7F327E0012032130A2FD7F30222013
:10091000A10D7F327E0012032130A1FD7F23223002
:10092000A0030208007F327E0012032130A0FD7F69
:0209300044225F
:100AD400787FE4F6D8FD75811B020B1B02000EE43F
:100AE40093A3F8E493A34003F68001F208DFF480B3
:100AF40029E493A3F85407240CC8C333C4540F4403
:100B040020C8834004F456800146F6DFE4800B01DC
:100B14000204081020408090035EE47E019360BCD0
:100B2400A3FF543F30E509541FFEE493A360010E74
:100B3400CF54C025E060A840B8E493A3FAE493A39B
:100B4400F8E493A3C8C582C8CAC583CAF0A3C8C5BC
:0C0B540082C8CAC583CADFE9DEE780BEA4
:00000001FF
